S01F000041546D6567615F556C747261736F6E69634843535230352E73726563BE
S11300000C94A7000C94C4000C94C4000C94C40079
S11300100C94C4000C94C4000C94C4000C94C4004C
S11300200C942A010C94C4000C94C4000C94C400D5
S11300300C94C4000C94C4000C94C4000C94C4002C
S11300400C94C4000C94C4000C94C4000C94C4001C
S11300500C94C40000407A10F35A00A0724E1809A0
S11300600010A5D4E80000E87648170000E40B541B
S1130070020000CA9A3B000000E1F50500008096EA
S11300809800000040420F000000A086010000001C
S1130090102700000000E8030000000064000000D6
S11300A000000A00000000000100000000002C769F
S11300B0D888DC674F0823DFC1DFAE59E1B1B796BA
S11300C0E5E3E453C63AE651997696E8E6C2842617
S11300D0EB898C9B62ED407C6FFCEFBC9C9F40F2F3
S11300E0BAA56FA5F490055A2AF75C936B6CF9676F
S11300F06DC11BFCE0E40D47FEF520E6B500D0ED34
S1130100902E0300943577050080841E080000209B
S11301104E0A000000C80C333333330F986E128339
S11301201141EF8D2114893BE65516CFFEE6DB180D
S1130130D1844B381BF77C1D901DA4BBE4242032D2
S113014084725E228100C9F124ECA1E53D271124CB
S11301501FBECFE5D4E0DEBFCDBF10E0A0E6B0E027
S1130160E4E8FAE002C005900D92AA37B107D9F786
S113017020E0AAE7B0E001C01D92AC37B207E1F776
S11301800E9441010C9440050C94000088BB85B387
S11301908C7F85BBAA9A82E08A95F1F700C0AA9861
S11301A08FE697E10197F1F700C00000089588BB3E
S11301B0A99885B3856085BB82E08A95F1F700C074
S11301C0AA988FEC97E00197F1F700C0000008951A
S11301D084B3876084BB8FEF87BB8FE39CE901976F
S11301E0F1F700C0000088E30E94C6008CE00E9482
S11301F0C60086E00E94C60081E00E94C60080E836
S11302000E94C6000895CF93DF93EC018881882370
S113021031F021960E94D70089918111FBCFDF91A3
S1130220CF910895CF93DF93EA01813031F4862F83
S11302308F7080680E94C60007C0823029F4862F20
S11302408F70806C0E94C600CE010E940301DF9172
S1130250CF9108951F920F920FB60F9211248F938E
S11302609F9380917A0090917B00019690937B00FC
S113027080937A009F918F910F900FBE0F901F90E3
S11302801895CF93DF93CDB7DEB72A970FB6F894BE
S1130290DEBF0FBECDBF81E08ABB8FEF82BB0E9461
S11302A0E80040E650E060E081E00E9412017894AA
S11302B084E089BF1FBC0F2EF1E49F2EF02D6894BB
S11302C0BB24B5F86894CC24C2F8AA24A394CE0124
S11302D001967C010F2EF7E0DF2EF02DD89A9AE1DB
S11302E09A95F1F700C0D8981DBC1CBC9EBCB8BE42
S11302F0C8BE08B605FEFDCF1DBC1CBCAEBCB8BE56
S1130300C8BE10927B0010927A0008B605FEFDCF9D
S113031066B577B580E090E00E942E0229E23CE3C6
S113032049EE53E40E94BA01870122E042E00E94B0
S1130330BA02D7010D900020E9F71197EBE6F0E03F
S11303408D2D01900D928A95E1F742E750E060E02F
S113035082E00E941201A7016D2D82E00E94120129
S11303602FEF81EE94E0215080409040E1F700C0EF
S11303700000B4CF0E94CE010C9480020E94790246
S113038058F00E94720240F029F45F3F29F00C9467
S1130390690251110C94B4020C946F020E949102F0
S11303A068F39923B1F3552391F3951B550BBB27A0
S11303B0AA2762177307840738F09F5F5F4F220FE5
S11303C0331F441FAA1FA9F335D00E2E3AF0E0E8DC
S11303D032D091505040E695001CCAF72BD0FE2F26
S11303E029D0660F771F881FBB1F261737074807BA
S11303F0AB07B0E809F0BB0B802DBF01FF27935872
S11304005F4F3AF09E3F510578F00C9469020C94CA
S1130410B4025F3FE4F3983ED4F3869577956795ED
S1130420B795F7959F5FC9F7880F911D96958795A6
S113043097F90895E1E0660F771F881FBB1F6217C5
S113044073078407BA0720F0621B730B840BBA0B83
S1130450EE1F88F7E0950895E89409C097FB3EF4F1
S113046090958095709561957F4F8F4F9F4F9923FD
S1130470A9F0F92F96E9BB279395F695879577957B
S11304806795B795F111F8CFFAF4BB0F11F460FF3B
S11304901BC06F5F7F4F8F4F9F4F16C0882311F093
S11304A096E911C0772321F09EE8872F762F05C0A7
S11304B0662371F096E8862F70E060E02AF09A9542
S11304C0660F771F881FDAF7880F9695879597F937
S11304D0089597F99F6780E870E060E008959FEFC2
S11304E080EC089500240A941616170618060906C7
S11304F0089500240A941216130614060506089596
S1130500092E0394000C11F4882352F0BB0F40F41D
S1130510BF2B11F460FF04C06F5F7F4F8F4F9F4F5D
S1130520089557FD9058440F551F59F05F3F71F0DF
S11305304795880F97FB991F61F09F3F79F0879546
S11305400895121613061406551FF2CF4695F1DFCF
S113055008C0161617061806991FF1CF869571055F
S1130560610508940895E894BB2766277727CB0193
S113057097F90895EF920F931F93CF93DF93E801B8
S113058047FD02C034E001C034E1E42F440FFF0B07
S1130590F7FF03C0F195E195F109E32E022F2E2F09
S11305A0AE010E94DA02CE01DF91CF911F910F912B
S11305B0EF9008954F925F926F927F929F92AF92C5
S11305C0BF92CF92DF92EF92FF920F931F93CF933C
S11305D0DF93CDB7DEB729970FB6F894DEBF0FBE11
S11305E0CDBF6A01122FB02E2BE3201720F0FF2479
S11305F0F394F00E02C0BCE3FB2E0F2D27E0AE01F6
S11306004F5F5F4F0E946804AC018981982F9970F5
S1130610913031F0E1FC06C0E0FE06C090E205C076
S11306209DE203C09BE201C090E0EE2DE07183FFE8
S11306303CC0911102C083E001C084E0811718F42A
S1130640212F281B01C020E0E1110BC0F601822FED
S113065030E2882319F031938150FBCFC20ED11CB4
S113066020E0992329F0D6019C93F60131966F017D
S1130670C6010396E2FE0AC03EE4D6013C9341E47F
S113068011964C93119712963C9306C03EE6F601E0
S1130690308341E641833283FC01322F40E233232D
S11306A009F442C041933150FACF82FF44C0911102
S11306B002C083E001C084E0811718F4212F281BB5
S11306C001C020E0E1110BC0F601822F30E2882343
S11306D019F031938150FBCFC20ED11C20E0992335
S11306E029F0D6019C93F60131966F01C601039659
S11306F0E2FE0BC039E4D6013C933EE411963C93F0
S1130700119736E412963C9307C039E6F60130831C
S11307103EE6318336E63283FC01322F40E2332356
S113072019F041933150FBCFFC01E20FF11D10820F
S11307308EEF9FEFB7C0F1E0911101C0F0E06F2F91
S113074070E01416150624F49A012F5F3F4F02C07F
S113075021E030E0260F371FBB2029F06B2D70E01D
S11307606F5F7F4F02C060E070E0260F371F612F7C
S113077070E0261737071CF4121B212F01C020E05C
S11307803E2D387159F4D601322F60E2332319F02B
S11307906D933150FBCFC20ED11C20E0FF2331F00A
S11307A0D6019C93B6016F5F7F4F6B01E1110BC0C3
S11307B0F601922F30E3992319F031939150FBCF36
S11307C0C20ED11C20E09F2D940F3A81782F7071B6
S11307D0A72E84FF03C0313309F49150191624F471
S11307E0993018F098E001C091E0E42F852F57FF6D
S11307F002C0E0E080E06E2F782FE0E0F0E0AEE2AF
S11308009A2E3A01691A71082A01461A570A0B2DC1
S113081010E01195019511096F3F8FEF780729F4C6
S1130820D6019C92C60101966C014617570784F0C5
S1130830661677066CF47F01E40CF51CA1E0B0E0C9
S1130840AC0FBD1FEA0EFB1ED7011196BC9002C06F
S113085090E3B92E615071093196C60101967C016D
S11308606017710724F0D601BC926C01D5CF6417D0
S1130870750741F4363320F4353321F4A11002C056
S113088081E3B82EF601B082F701822F90E288232B
S113089019F091938150FBCFF701E20FF11D108203
S11308A080E090E029960FB6F894DEBF0FBECDBF6E
S11308B0DF91CF911F910F91FF90EF90DF90CF9038
S11308C0BF90AF909F907F906F905F904F900895EE
S11308D0283008F027E03327DA01990F311D87FD0E
S11308E0916000966105710539F432602E5F3D9385
S11308F030E32A95E1F708959F3F30F08038710581
S1130900610509F03C5F3C5F3D93913008F08068DD
S1130910911DDF93CF931F930F93FF92EF92192FA3
S1130920987F9695E92F96959695E90FFF27E255BE
S1130930FF4F99273327EE24FF24A701E7010590F1
S11309400894079428F4360FE71EF81E491F511D1A
S1130950660F771F881F991F0694A1F705900794C7
S113096028F4E70EF81E491F561FC11D770F881F74
S1130970991F661F0694A1F70590079428F4F80EB2
S1130980491F561FC71FD11D880F991F661F771F48
S11309900694A1F70590079420F4490F561FC71F2A
S11309A0D81F990F661F771F881F0694A9F7849193
S11309B01095177041F0D695C79557954795F794BC
S11309C0E7941A95C1F7E4E5F0E068941590159161
S11309D035916591959105907FE27395E118F10A3F
S11309E0430B560BC90BD009C0F7E10CF11E431F92
S11309F0561FC91FD01D7EF4703311F48A95E6CFBB
S1130A00E894015030F0080F0AF40027021708F4A4
S1130A10202F2395022F7A3328F079E37D932A95AA
S1130A20E9F710C07D932A9589F606949795679502
S1130A30379517951794E118F10A430B560BC90B18
S1130A40D00998F023957E9173957A3308F070E37A
S1130A507C932013B8F77E9170617D9330F0839579
S1130A6071E37D9370E32A95E1F71124EF90FF90F1
S1130A700F911F91CF91DF91992787FD909508954C
S1070A80F894FFCF14
S1130A84556C747261736F6E69630020636D20200A
S10D0A94200044697374203D200023
S9030000FC
