S00B00004C43442E7372656346
S11300000C942A000C9434000C9434000C943400A6
S11300100C9434000C9434000C9434000C9434008C
S11300200C9434000C9434000C9434000C9434007C
S11300300C9434000C9434000C9434000C9434006C
S11300400C9434000C9434000C9434000C9434005C
S11300500C94340011241FBECFE5D8E0DEBFCDBF21
S11300600E945A000C9485000C9400008BBB82B350
S11300708F7B82BB82B3806282BB83ED90E3019766
S1130080F1F700C0000082B38F7D82BB1BBA0895D4
S11300908BBB82B3806482BB82B3806282BB83EDFC
S11300A090E30197F1F700C0000082B38F7D82BB1B
S11300B01BBA08958FEF8ABB81BB83ED90E3019750
S11300C0F1F700C0000081E00E94360088E30E943E
S11300D036008EE00E94360081E00E94360088E3FC
S11300E00E9436008EE00E94360084E40E9448009C
S11300F089E40E9448008CE40E94480089E40E943C
S1110100480080E50E944800E7CFF894FFCF46
S9030000FC
