S0270000556C747261536F6E69635F41746D65676133325F6C63645F646973706C61792E73726563FF
S11300000C942A000C9447000C9447000C9447006D
S11300100C9447000C9447000C9447000C94470040
S11300200C9447000C9447000C9447000C94470030
S11300300C9447000C9447000C9447000C94470020
S11300400C9447000C9447000C9447000C94470010
S11300500C94470011241FBECFE5D8E0DEBFCDBF0E
S113006010E0A0E6B0E0EEE8F6E002C005900D92E4
S1130070A237B107D9F720E0A2E7B0E001C01D9292
S1130080A237B207E1F70E9427030C9445030C94AE
S11300900000672B09F0DFC0009721F48BB38E7F3B
S11300A08BBB08958130910521F48BB38D7F8BBB7D
S11300B008958230910521F48BB38B7F8BBB089517
S11300C08330910521F48BB3877F8BBB08958430F3
S11300D0910521F48BB38F7E8BBB089585309105F8
S11300E021F48BB38F7D8BBB08958630910521F469
S11300F08BB38F7B8BBB08958730910521F48BB331
S11301008F778BBB08958A30910521F488B38E7F55
S113011088BB08958B30910521F488B38D7F88BB0B
S113012008958C30910521F488B38B7F88BB0895A2
S11301308D30910521F488B3877F88BB08958E3074
S1130140910521F488B38F7E88BB08958F30910583
S113015021F488B38F7D88BB08958031910521F403
S113016088B38F7B88BB08958131910521F488B3CE
S11301708F7788BB08958431910521F485B38E7FF0
S113018085BB08958531910521F485B38D7F85BBA9
S113019008958631910521F485B38B7F85BB08953D
S11301A08731910521F485B3877F85BB0895883114
S11301B0910521F485B38F7E85BB0895893191051E
S11301C021F485B38F7D85BB08958A31910521F48F
S11301D085B38F7B85BB08958B31910521F485B35D
S11301E08F7785BB08958E31910521F482B38E7F7C
S11301F082BB08958F31910521F482B38D7F82BB38
S113020008958032910521F482B38B7F82BB0895D7
S11302108132910521F482B3877F82BB08958232B3
S1130220910521F482B38F7E82BB089583329105B8
S113023021F482B38F7D82BB08958432910521F429
S113024082B38F7B82BB0895859709F0E1C082B3A6
S11302508F7782BB0895009721F48BB381608BBBA9
S113026008958130910521F48BB382608BBB08958E
S11302708230910521F48BB384608BBB0895833065
S1130280910521F48BB388608BBB0895843091056C
S113029021F48BB380618BBB08958530910521F4E3
S11302A08BB380628BBB08958630910521F48BB3A8
S11302B080648BBB08958730910521F48BB38068EB
S11302C08BBB08958A30910521F488B3816088BB83
S11302D008958B30910521F488B3826088BB08951A
S11302E08C30910521F488B3846088BB08958D30E7
S11302F0910521F488B3886088BB08958E309105F8
S113030021F488B3806188BB08958F30910521F46E
S113031088B3806288BB08958031910521F488B345
S1130320806488BB08958131910521F488B3806885
S113033088BB08958431910521F485B3816085BB20
S113034008958531910521F485B3826085BB0895B4
S11303508631910521F485B3846085BB0895873186
S1130360910521F485B3886085BB08958831910592
S113037021F485B3806185BB08958931910521F409
S113038085B3806285BB08958A31910521F485B3D4
S1130390806485BB08958B31910521F485B3806811
S11303A085BB08958E31910521F482B3816082BBAF
S11303B008958F31910521F482B3826082BB089540
S11303C08032910521F482B3846082BB0895813226
S11303D0910521F482B3886082BB0895823291052D
S11303E021F482B3806182BB08958332910521F4A4
S11303F082B3806282BB08958432910521F482B372
S1130400806482BB0895859719F482B3806882BBA7
S11304100895CF93C82F80FF07C061E070E082E2A7
S113042090E00E94490006C060E070E082E290E043
S11304300E944900C1FF07C061E070E083E290E0E0
S11304400E94490006C060E070E083E290E00E94F0
S11304504900C2FF07C061E070E084E290E00E94BE
S1130460490006C060E070E084E290E00E94490028
S1130470C3FF07C061E070E085E290E00E9449009C
S113048006C060E070E085E290E00E944900CF91F0
S11304900895CF93C82F60E070E08AE190E00E9455
S11304A049008C2F0E94090261E070E08BE190E02A
S11304B00E9449008FE99FE00197F1F700C0000016
S11304C060E070E08BE190E00E9449008FE99FE0DA
S11304D00197F1F700C00000CF91089580E00E94D9
S11304E0490281E00E9449020895CF93813061F46A
S11304F080E8860FC62FCF7082958F700E944902C4
S11305008C2F0E9449020DC0823059F480EC860F72
S1130510C62FCF7082958F700E9449028C2F0E9443
S11305204902CF91089580E00E9409022FEF89EFDC
S113053090E0215080409040E1F700C0000083E04B
S11305400E9449028FE19EE40197F1F700C0000088
S113055083E00E9449028FED9BEA0197F1F700C006
S1130560000083E00E94490282E00E94490282E086
S11305700E94490288E00E94490280E00E944902E8
S11305808CE00E94490280E00E94490286E00E94B9
S113059049020895CF93DF93D82FDF70C82FC07F0F
S11305A061E070E08AE190E00E9449008C2F82951E
S11305B08F700E94090261E070E08BE190E00E947C
S11305C049008FE99FE00197F1F700C0000060E067
S11305D070E08BE190E00E9449008FE99FE0019771
S11305E0F1F700C000008D2F0E94090261E070E065
S11305F08BE190E00E9449008FE99FE00197F1F7B9
S113060000C0000060E070E08BE190E00E944900CF
S11306108FE99FE00197F1F700C00000DF91CF91CF
S113062008950F931F93CF93DF938C01C0E0D0E024
S113063003C00E94CA022196F801EC0FFD1F8081BD
S11306408111F7CFDF91CF911F910F9108950E94EF
S113065093020E946E0260E081E00E94750280E6CF
S113066090E00E94110360E082E00E9475028CE633
S113067090E00E9411032FEF80E792E02150804028
S11106809040E1F700C00000F6CFF894FFCFE1
S113068E44697374616E6365203A2000564B434887
S105069E440012
S9030000FC
