:100000000C942A000C943C000C943C000C943C0092
:100010000C943C000C943C000C943C000C943C0070
:100020000C943C000C943C000C943C000C943C0060
:100030000C943C000C944B000C943C000C943C0041
:100040000C943C000C943C000C943C000C943C0040
:100050000C943C0011241FBECFE5D8E0DEBFCDBF1D
:1000600020E0A0E6B0E001C01D92A23AB207E1F79D
:100070000E94A7000C94D0000C9400002FEF209356
:1000800061002093600090BD89B986E880BD88E852
:100090008AB9789408951F920F920FB60F92112487
:1000A0002F933F934F938F939F93EF93FF934CB175
:1000B000809161008F3389F180916100209160000F
:1000C000992787FD90950196332727FD3095821754
:1000D000930739F1809161008F3391F18091610034
:1000E0008F5F80936100E0916100FF27E7FDF0954D
:1000F000EE59FF4F4083809160008F3F11F41092C2
:100100006000FF91EF919F918F914F913F912F91BF
:100110000F900FBE0F901F90189580916000811175
:10012000CBCF809160008F5F8093600080916000F2
:10013000803481F610926000809161008F3371F6F7
:1001400010926100D0CF5D9BFECF8CB9089580EAFC
:1001500091E00E943E008FEF85BBC0E0D0E013B37A
:100160008AE40E94A30081E40E94A30081E40E942B
:10017000A300812F0E94A300812F80950E94A300DD
:100180008AE50E94A300CE010197F1F7CE01019705
:10019000F1F7CE010197F1F7CE010197F1F7DFCF2B
:0401A000F894FFCF01
:00000001FF
