:100000000C942A000C9434000C9434000C943400AA
:100010000C9434000C9434000C9434000C94340090
:100020000C9434000C9434000C9434000C94340080
:100030000C9434000C9434000C9434000C94340070
:100040000C9434000C9434000C9434000C94340060
:100050000C94340011241FBECFE5D8E0DEBFCDBF25
:100060000E9443000C9453000C9400001BB880E1E4
:100070008AB986E880BD10BC8FEC89B908955F9B72
:10008000FECF8CB108958FEF8ABB87BB0E943600EC
:100090001BBA81E088BB0E943F0080FFFCCF8BB37E
:0A00A00080958BBBF8CFF894FFCFDA
:00000001FF
