S00C00004C4344322E7372656313
S11300000C942A000C943F000C943F000C943F0085
S11300100C943F000C943F000C943F000C943F0060
S11300200C943F000C943F000C943F000C943F0050
S11300300C943F000C943F000C943F000C943F0040
S11300400C943F000C943F000C943F000C943F0030
S11300500C943F0011241FBECFE5D8E0DEBFCDBF16
S113006010E0A0E6B0E0E0EAF2E002C005900D92F4
S1130070A037B107D9F70E9428010C944E010C94C3
S1130080000082E680B984E086BF11B8089584EA4E
S113009086BF06B607FEFDCF089583B984E886BF00
S11300A006B607FEFDCF089540E050E00AC02F5F7A
S11300B03F4F02C020E030E029373105C4F34F5FE1
S11300C05F4F84179507B4F7089583B1826083B9AD
S11300D084E886BF06B607FEFDCF81E090E00E946B
S11300E0540083B18D7F83B984E886BF06B607FECA
S11300F0FDCF089593B19E7F93B994E896BF06B659
S113010007FEFDCF93B19F7093B994E896BF06B6EE
S113011007FEFDCF93B1807F892B83B984E886BF26
S113012006B607FEFDCF0E9465000895CF93C82F41
S113013083B18E7F83B984E886BF06B607FEFDCF00
S113014083B18F7083B984E886BF06B607FEFDCFFE
S113015083B19C2F907F892B83B984E886BF06B630
S113016007FEFDCF0E94650083B18F7083B984E8D8
S113017086BF06B607FEFDCF23B130E1C39FC001A1
S11301801124822B83B984E886BF06B607FEFDCF0F
S11301900E946500CF91089580E30E947A0080E375
S11301A00E947A0080E20E947A0088E20E9496000F
S11301B08CE00E94960081E00E94960086E00E94F6
S11301C0960080E80E9496000895CF93C82F83B1CB
S11301D0816083B984E886BF06B607FEFDCF83B18C
S11301E08F7083B984E886BF06B607FEFDCF83B15E
S11301F09C2F907F892B83B984E886BF06B607FEBF
S1130200FDCF0E94650083B18F7083B984E886BFF7
S113021006B607FEFDCF23B130E1C39FC001112410
S1130220822B83B984E886BF06B607FEFDCF0E9401
S11302306500CF910895CF93DF93EC0103C021961D
S11302400E94E50088818111FACFDF91CF91089552
S11302508FEF8ABB0E9441000E94470080E70E9402
S11302604D000E94CC0080E80E94960080E690E059
S11302700E941B0183EC0E9496008CE690E00E9491
S11302801B018BB380958BBB2FE78AE196E021504D
S113029080409040E1F700C00000E5CFF894FFCF24
S11302A05072756562612070617261004932430069
S9030000FC
