:100000000C9431000C9496000C94BA000C944E00A1
:100010000C944E000C944E000C944E000C944E0028
:100020000C944E000C944E000C944E000C944E0018
:100030000C944E000C944E000C944E000C944E0008
:100040000C944E000C944E000C944E000C944E00F8
:100050000C944E006A00720076007A006E008200F6
:100060007E0011241FBECFE5D8E0DEBFCDBF10E07B
:10007000A0E6B0E0EAE2F2E002C005900D92A03600
:10008000B107D9F720E0A0E6B0E001C01D92A33788
:10009000B207E1F70E94DF000C9413010C940000FA
:1000A0001BB888E98AB986E880BD10BC83E389B9AA
:1000B00008955D9BFECF8CB90895E09172008E2F5C
:1000C00090E0FC013197E730F105F8F4E65DFF4F71
:1000D0000C940D0181E00E945900089585E00E9472
:1000E0005900089582E00E945900089583E00E941B
:1000F0005900089584E00E945900089587E00E9405
:100100005900089586E00E94590008950E945D00FC
:1001100010927200109271002FE38DE093E0215055
:1001200080409040E1F700C0000008951F920F92B8
:100130000FB60F9211248F939F93809171008F5F60
:100140008093710080917200880F809372008BB34E
:1001500082608BBB87EA91E60197F1F700C000004F
:100160008BB38D7F8BBB9F918F910F900FBE0F90A4
:100170001F9018951F920F920FB60F9211248F9314
:100180009F93809171008F5F8093710080917200C6
:10019000880F8F5F809372008BB384608BBB87EA7C
:1001A00091E60197F1F700C000008BB38B7F8BBB0A
:1001B0009F918F910F900FBE0F901F9018958FEF0A
:1001C0008ABB1BBA80E48BBF8BB780688BBF82E091
:1001D00085BF85B7886085BF0E945000109271006E
:1001E000789480917100833059F480917200882353
:1001F00039F09BB381E089278BBB0E948600F1CF49
:1002000080917100833069F7809172008111E9CF8C
:100210001092710010927200E4CFEE0FFF1F059054
:0A022000F491E02D0994F894FFCF4B
:00000001FF
