:100000000C942A000C9434000C9434000C943400AA
:100010000C9434000C9434000C9434000C94340090
:100020000C9434000C9434000C9434000C94340080
:100030000C9434000C9434000C9434000C94340070
:100040000C9434000C9434000C9434000C94340060
:100050000C94340011241FBECFE5D8E0DEBFCDBF25
:100060000E9443000C945D000C9400001BB888E0D3
:100070008AB986E880BD10BC8FEC89B908955D9B74
:10008000FECF8CB908958FEF8ABB0E94360080E2C4
:100090008BBF80E484BF78941BBA81E00E943F004C
:1000A0008BB380958BBB2FE78AE196E0215080408F
:0E00B0009040E1F700C00000F0CFF894FFCFC1
:00000001FF
